{
  "contractName": "Board",
  "abi": [
    {
      "constant": true,
      "inputs": [
        {
          "name": "",
          "type": "uint256"
        }
      ],
      "name": "hashActiveFutures",
      "outputs": [
        {
          "name": "",
          "type": "bytes32"
        }
      ],
      "payable": false,
      "stateMutability": "view",
      "type": "function"
    },
    {
      "constant": true,
      "inputs": [],
      "name": "countOfPrices",
      "outputs": [
        {
          "name": "",
          "type": "uint8"
        }
      ],
      "payable": false,
      "stateMutability": "view",
      "type": "function"
    },
    {
      "constant": false,
      "inputs": [
        {
          "name": "hashDerivative",
          "type": "bytes32"
        }
      ],
      "name": "startExpiration",
      "outputs": [],
      "payable": false,
      "stateMutability": "nonpayable",
      "type": "function"
    },
    {
      "constant": true,
      "inputs": [
        {
          "name": "",
          "type": "address"
        },
        {
          "name": "",
          "type": "uint256"
        }
      ],
      "name": "investorDerivatives",
      "outputs": [
        {
          "name": "hashIssue",
          "type": "bytes32"
        },
        {
          "name": "startExpirationBlock",
          "type": "uint256"
        },
        {
          "name": "endExpirationBlock",
          "type": "uint256"
        },
        {
          "name": "averagePrice",
          "type": "int256"
        },
        {
          "name": "isActive",
          "type": "bool"
        },
        {
          "name": "isExpirate",
          "type": "bool"
        }
      ],
      "payable": false,
      "stateMutability": "view",
      "type": "function"
    },
    {
      "constant": true,
      "inputs": [
        {
          "name": "",
          "type": "bytes32"
        }
      ],
      "name": "activeFutures",
      "outputs": [
        {
          "name": "",
          "type": "bool"
        }
      ],
      "payable": false,
      "stateMutability": "view",
      "type": "function"
    },
    {
      "constant": true,
      "inputs": [
        {
          "name": "hashDerivative",
          "type": "bytes32"
        }
      ],
      "name": "getExpirationPrice",
      "outputs": [
        {
          "name": "",
          "type": "int256"
        }
      ],
      "payable": false,
      "stateMutability": "view",
      "type": "function"
    },
    {
      "constant": true,
      "inputs": [
        {
          "name": "",
          "type": "bytes32"
        },
        {
          "name": "",
          "type": "uint256"
        }
      ],
      "name": "derivativeInvestors",
      "outputs": [
        {
          "name": "",
          "type": "address"
        }
      ],
      "payable": false,
      "stateMutability": "view",
      "type": "function"
    },
    {
      "constant": true,
      "inputs": [
        {
          "name": "",
          "type": "bytes32"
        }
      ],
      "name": "poolDerivatives",
      "outputs": [
        {
          "name": "hashIssue",
          "type": "bytes32"
        },
        {
          "name": "startExpirationBlock",
          "type": "uint256"
        },
        {
          "name": "endExpirationBlock",
          "type": "uint256"
        },
        {
          "name": "averagePrice",
          "type": "int256"
        },
        {
          "name": "isActive",
          "type": "bool"
        },
        {
          "name": "isExpirate",
          "type": "bool"
        }
      ],
      "payable": false,
      "stateMutability": "view",
      "type": "function"
    },
    {
      "constant": true,
      "inputs": [],
      "name": "owner",
      "outputs": [
        {
          "name": "",
          "type": "address"
        }
      ],
      "payable": false,
      "stateMutability": "view",
      "type": "function"
    },
    {
      "constant": true,
      "inputs": [],
      "name": "getLatestPrice",
      "outputs": [
        {
          "name": "",
          "type": "int256"
        }
      ],
      "payable": false,
      "stateMutability": "view",
      "type": "function"
    },
    {
      "constant": false,
      "inputs": [
        {
          "name": "price",
          "type": "int256"
        },
        {
          "name": "hashDerivative",
          "type": "bytes32"
        }
      ],
      "name": "setExpirationPrice",
      "outputs": [],
      "payable": false,
      "stateMutability": "nonpayable",
      "type": "function"
    },
    {
      "constant": false,
      "inputs": [
        {
          "name": "startExpirationBlockNumber",
          "type": "uint256"
        }
      ],
      "name": "createDerivative",
      "outputs": [
        {
          "name": "",
          "type": "bytes32"
        }
      ],
      "payable": false,
      "stateMutability": "nonpayable",
      "type": "function"
    },
    {
      "constant": false,
      "inputs": [
        {
          "name": "hashDerivative",
          "type": "bytes32"
        }
      ],
      "name": "closeExpiration",
      "outputs": [],
      "payable": false,
      "stateMutability": "nonpayable",
      "type": "function"
    },
    {
      "anonymous": false,
      "inputs": [
        {
          "indexed": false,
          "name": "price",
          "type": "int256"
        },
        {
          "indexed": false,
          "name": "hashDerivative",
          "type": "bytes32"
        }
      ],
      "name": "AddedExpirationPrice",
      "type": "event"
    },
    {
      "anonymous": false,
      "inputs": [
        {
          "indexed": false,
          "name": "hashDerivative",
          "type": "bytes32"
        }
      ],
      "name": "CreatedDerivative",
      "type": "event"
    },
    {
      "anonymous": false,
      "inputs": [
        {
          "indexed": false,
          "name": "hashDerivative",
          "type": "bytes32"
        },
        {
          "indexed": false,
          "name": "amount",
          "type": "uint256"
        },
        {
          "indexed": false,
          "name": "predictionPrice",
          "type": "uint256"
        },
        {
          "indexed": false,
          "name": "investor",
          "type": "address"
        }
      ],
      "name": "BoughtPrice",
      "type": "event"
    },
    {
      "anonymous": false,
      "inputs": [
        {
          "indexed": false,
          "name": "hashIssue",
          "type": "bytes32"
        },
        {
          "indexed": false,
          "name": "startExpirationBlock",
          "type": "uint256"
        },
        {
          "indexed": false,
          "name": "pricesExpiration",
          "type": "int256[]"
        },
        {
          "indexed": false,
          "name": "isActive",
          "type": "bool"
        },
        {
          "indexed": false,
          "name": "isExpirate",
          "type": "bool"
        }
      ],
      "name": "CreateFutures",
      "type": "event"
    },
    {
      "constant": false,
      "inputs": [
        {
          "name": "startExpirationBlockNumber",
          "type": "uint256"
        }
      ],
      "name": "createNewDerivative",
      "outputs": [],
      "payable": false,
      "stateMutability": "nonpayable",
      "type": "function"
    },
    {
      "constant": false,
      "inputs": [
        {
          "name": "hashDerivative",
          "type": "bytes32"
        }
      ],
      "name": "expirateDerivative",
      "outputs": [],
      "payable": false,
      "stateMutability": "nonpayable",
      "type": "function"
    },
    {
      "constant": true,
      "inputs": [],
      "name": "getActiveDerivatives",
      "outputs": [
        {
          "name": "",
          "type": "bytes32[]"
        },
        {
          "name": "",
          "type": "uint256[]"
        },
        {
          "name": "",
          "type": "uint256[]"
        }
      ],
      "payable": false,
      "stateMutability": "view",
      "type": "function"
    },
    {
      "constant": false,
      "inputs": [
        {
          "name": "hashDerivative",
          "type": "bytes32"
        }
      ],
      "name": "addExpirationPrice",
      "outputs": [],
      "payable": false,
      "stateMutability": "nonpayable",
      "type": "function"
    },
    {
      "constant": false,
      "inputs": [
        {
          "name": "hashDerivative",
          "type": "bytes32"
        },
        {
          "name": "amount",
          "type": "uint256"
        },
        {
          "name": "predictionPrice",
          "type": "uint256"
        }
      ],
      "name": "buyDerivative",
      "outputs": [],
      "payable": false,
      "stateMutability": "nonpayable",
      "type": "function"
    },
    {
      "constant": true,
      "inputs": [
        {
          "name": "hashDerivative",
          "type": "bytes32"
        }
      ],
      "name": "getInvestors",
      "outputs": [
        {
          "name": "",
          "type": "address[]"
        },
        {
          "name": "",
          "type": "uint256[]"
        },
        {
          "name": "",
          "type": "uint256[]"
        }
      ],
      "payable": false,
      "stateMutability": "view",
      "type": "function"
    },
    {
      "constant": true,
      "inputs": [
        {
          "name": "hashDerivative",
          "type": "bytes32"
        }
      ],
      "name": "startPaymentAfterExpiration",
      "outputs": [],
      "payable": false,
      "stateMutability": "view",
      "type": "function"
    }
  ],
  "bytecode": "0x608060405260326001556000600260006101000a81548160ff021916908360ff1602179055506000600a5560326040519080825280602002602001820160405280156200005b5781602001602082028038833980820191505090505b50600b9080519060200190620000739291906200010f565b5073777a68032a88e5a84678a77af2cd65a7b3c0775a6000806101000a81548173ffffffffffffffffffffffffffffffffffffffff021916908373ffffffffffffffffffffffffffffffffffffffff16021790555033600460006101000a81548173ffffffffffffffffffffffffffffffffffffffff021916908373ffffffffffffffffffffffffffffffffffffffff16021790555062000189565b8280548282559060005260206000209081019282156200014e579160200282015b828111156200014d57825182559160200191906001019062000130565b5b5090506200015d919062000161565b5090565b6200018691905b808211156200018257600081600090555060010162000168565b5090565b90565b61275180620001996000396000f3fe608060405234801561001057600080fd5b506004361061012c5760003560e01c80636cd34943116100ad578063cb317a7611610071578063cb317a76146106c7578063dcd6be64146106ff578063e3e1861f1461072d578063eebacf3b1461076f578063efcf45541461079d5761012c565b80636cd349431461054c57806388d2c888146105c45780638da5cb5b146106315780638e15f4731461067b578063960b9e51146106995761012c565b806332a4a50d116100f457806332a4a50d146102f657806334f3caea14610383578063380febde146103b15780634abe82e7146104c457806356e256891461050a5761012c565b806306f358a5146101315780630c0d7e65146102205780630c2b08f514610262578063107f10fe146102a457806316292de6146102c8575b600080fd5b6101396107cb565b60405180806020018060200180602001848103845287818151815260200191508051906020019060200280838360005b83811015610184578082015181840152602081019050610169565b50505050905001848103835286818151815260200191508051906020019060200280838360005b838110156101c65780820151818401526020810190506101ab565b50505050905001848103825285818151815260200191508051906020019060200280838360005b838110156102085780820151818401526020810190506101ed565b50505050905001965050505050505060405180910390f35b61024c6004803603602081101561023657600080fd5b81019080803590602001909291905050506109a2565b6040518082815260200191505060405180910390f35b6102a26004803603606081101561027857600080fd5b810190808035906020019092919080359060200190929190803590602001909291905050506109c3565b005b6102ac610e15565b604051808260ff1660ff16815260200191505060405180910390f35b6102f4600480360360208110156102de57600080fd5b8101908080359060200190929190505050610e28565b005b6103426004803603604081101561030c57600080fd5b81019080803573ffffffffffffffffffffffffffffffffffffffff16906020019092919080359060200190929190505050610f4c565b604051808781526020018681526020018581526020018481526020018315151515815260200182151515158152602001965050505050505060405180910390f35b6103af6004803603602081101561039957600080fd5b8101908080359060200190929190505050610fbc565b005b6103dd600480360360208110156103c757600080fd5b810190808035906020019092919050505061129a565b60405180806020018060200180602001848103845287818151815260200191508051906020019060200280838360005b8381101561042857808201518184015260208101905061040d565b50505050905001848103835286818151815260200191508051906020019060200280838360005b8381101561046a57808201518184015260208101905061044f565b50505050905001848103825285818151815260200191508051906020019060200280838360005b838110156104ac578082015181840152602081019050610491565b50505050905001965050505050505060405180910390f35b6104f0600480360360208110156104da57600080fd5b81019080803590602001909291905050506115e6565b604051808215151515815260200191505060405180910390f35b6105366004803603602081101561052057600080fd5b8101908080359060200190929190505050611606565b6040518082815260200191505060405180910390f35b6105826004803603604081101561056257600080fd5b810190808035906020019092919080359060200190929190505050611626565b604051808273ffffffffffffffffffffffffffffffffffffffff1673ffffffffffffffffffffffffffffffffffffffff16815260200191505060405180910390f35b6105f0600480360360208110156105da57600080fd5b8101908080359060200190929190505050611671565b604051808781526020018681526020018581526020018481526020018315151515815260200182151515158152602001965050505050505060405180910390f35b6106396116c7565b604051808273ffffffffffffffffffffffffffffffffffffffff1673ffffffffffffffffffffffffffffffffffffffff16815260200191505060405180910390f35b6106836116ed565b6040518082815260200191505060405180910390f35b6106c5600480360360208110156106af57600080fd5b810190808035906020019092919050505061184b565b005b6106fd600480360360408110156106dd57600080fd5b810190808035906020019092919080359060200190929190505050611965565b005b61072b6004803603602081101561071557600080fd5b8101908080359060200190929190505050611bc3565b005b6107596004803603602081101561074357600080fd5b8101908080359060200190929190505050611d40565b6040518082815260200191505060405180910390f35b61079b6004803603602081101561078557600080fd5b8101908080359060200190929190505050612034565b005b6107c9600480360360208110156107b357600080fd5b8101908080359060200190929190505050612258565b005b606080606080600b805490506040519080825280602002602001820160405280156108055781602001602082028038833980820191505090505b5090506060600b8054905060405190808252806020026020018201604052801561083e5781602001602082028038833980820191505090505b509050600080905060008090505b600b8054905081101561093d576001151560066000600b848154811061086e57fe5b9060005260206000200154815260200190815260200160002060009054906101000a900460ff16151514156109305760056000600b83815481106108ae57fe5b9060005260206000200154815260200190815260200160002060010154848360ff16815181106108da57fe5b60200260200101818152505060056000600b83815481106108f757fe5b9060005260206000200154815260200190815260200160002060020154838360ff168151811061092357fe5b6020026020010181815250505b808060010191505061084c565b50600b83838280548060200260200160405190810160405280929190818152602001828054801561098d57602002820191906000526020600020905b815481526020019060010190808311610979575b50505050509250955095509550505050909192565b600b81815481106109af57fe5b906000526020600020016000915090505481565b600760008481526020019081526020016000203390806001815401808255809150509060018203906000526020600020016000909192909190916101000a81548173ffffffffffffffffffffffffffffffffffffffff021916908373ffffffffffffffffffffffffffffffffffffffff16021790555050610a42612501565b60405180608001604052803373ffffffffffffffffffffffffffffffffffffffff168152602001848152602001838152602001600560008781526020019081526020016000206040518060e001604052908160008201548152602001600182015481526020016002820154815260200160038201805480602002602001604051908101604052809291908181526020018280548015610b0057602002820191906000526020600020905b815481526020019060010190808311610aec575b50505050508152602001600482015481526020016005820160009054906101000a900460ff161515151581526020016005820160019054906101000a900460ff161515151581525050815250905060096000858152602001908152602001600020819080600181540180825580915050906001820390600052602060002090600902016000909192909190915060008201518160000160006101000a81548173ffffffffffffffffffffffffffffffffffffffff021916908373ffffffffffffffffffffffffffffffffffffffff16021790555060208201518160010155604082015181600201556060820151816003016000820151816000015560208201518160010155604082015181600201556060820151816003019080519060200190610c2b929190612546565b506080820151816004015560a08201518160050160006101000a81548160ff02191690831515021790555060c08201518160050160016101000a81548160ff0219169083151502179055505050505050600860003373ffffffffffffffffffffffffffffffffffffffff1673ffffffffffffffffffffffffffffffffffffffff16815260200190815260200160002060056000868152602001908152602001600020908060018154018082558091505090600182039060005260206000209060060201600090919290919091506000820154816000015560018201548160010155600282015481600201556003820181600301908054610d2c929190612593565b50600482015481600401556005820160009054906101000a900460ff168160050160006101000a81548160ff0219169083151502179055506005820160019054906101000a900460ff168160050160016101000a81548160ff0219169083151502179055505050507f543462fcc523de8683f62c9aeccb0da11e929a96e5d2a62d590d3e38af487f9884838533604051808581526020018481526020018381526020018273ffffffffffffffffffffffffffffffffffffffff1673ffffffffffffffffffffffffffffffffffffffff16815260200194505050505060405180910390a150505050565b600260009054906101000a900460ff1681565b600460009054906101000a900473ffffffffffffffffffffffffffffffffffffffff1673ffffffffffffffffffffffffffffffffffffffff163373ffffffffffffffffffffffffffffffffffffffff1614610eeb576040517f08c379a00000000000000000000000000000000000000000000000000000000081526004018080602001828103825260178152602001807f53656e646572206973206e6f7420746865206f776e657200000000000000000081525060200191505060405180910390fd5b60006005600083815260200190815260200160002060050160006101000a81548160ff02191690831515021790555060016005600083815260200190815260200160002060050160016101000a81548160ff02191690831515021790555050565b60086020528160005260406000208181548110610f6557fe5b9060005260206000209060060201600091509150508060000154908060010154908060020154908060040154908060050160009054906101000a900460ff16908060050160019054906101000a900460ff16905086565b600460009054906101000a900473ffffffffffffffffffffffffffffffffffffffff1673ffffffffffffffffffffffffffffffffffffffff163373ffffffffffffffffffffffffffffffffffffffff161461107f576040517f08c379a00000000000000000000000000000000000000000000000000000000081526004018080602001828103825260178152602001807f53656e646572206973206e6f7420746865206f776e657200000000000000000081525060200191505060405180910390fd5b600015156006600083815260200190815260200160002060009054906101000a900460ff1615151415611297576000600560008381526020019081526020016000206004015490506000600960008481526020019081526020016000208054905090506000600a82816110ee57fe5b049050606060096000868152602001908152602001600020805480602002602001604051908101604052809291908181526020016000905b8282101561128c57838290600052602060002090600902016040518060800160405290816000820160009054906101000a900473ffffffffffffffffffffffffffffffffffffffff1673ffffffffffffffffffffffffffffffffffffffff1673ffffffffffffffffffffffffffffffffffffffff1681526020016001820154815260200160028201548152602001600382016040518060e00160405290816000820154815260200160018201548152602001600282015481526020016003820180548060200260200160405190810160405280929190818152602001828054801561123057602002820191906000526020600020905b81548152602001906001019080831161121c575b50505050508152602001600482015481526020016005820160009054906101000a900460ff161515151581526020016005820160019054906101000a900460ff1615151515815250508152505081526020019060010190611126565b505050509050505050505b50565b60608060606000600960008681526020019081526020016000208054905090506060816040519080825280602002602001820160405280156112eb5781602001602082028038833980820191505090505b50905060608260405190808252806020026020018201604052801561131f5781602001602082028038833980820191505090505b5090506060836040519080825280602002602001820160405280156113535781602001602082028038833980820191505090505b5090506060600960008a8152602001908152602001600020805480602002602001604051908101604052809291908181526020016000905b828210156114f157838290600052602060002090600902016040518060800160405290816000820160009054906101000a900473ffffffffffffffffffffffffffffffffffffffff1673ffffffffffffffffffffffffffffffffffffffff1673ffffffffffffffffffffffffffffffffffffffff1681526020016001820154815260200160028201548152602001600382016040518060e00160405290816000820154815260200160018201548152602001600282015481526020016003820180548060200260200160405190810160405280929190818152602001828054801561149557602002820191906000526020600020905b815481526020019060010190808311611481575b50505050508152602001600482015481526020016005820160009054906101000a900460ff161515151581526020016005820160019054906101000a900460ff161515151581525050815250508152602001906001019061138b565b50505050905060008090505b858110156115d05781818151811061151157fe5b60200260200101516000015185828151811061152957fe5b602002602001019073ffffffffffffffffffffffffffffffffffffffff16908173ffffffffffffffffffffffffffffffffffffffff168152505081818151811061156f57fe5b60200260200101516040015184828151811061158757fe5b60200260200101818152505081818151811061159f57fe5b6020026020010151602001518382815181106115b757fe5b60200260200101818152505080806001019150506114fd565b5083838397509750975050505050509193909250565b60066020528060005260406000206000915054906101000a900460ff1681565b600060056000838152602001908152602001600020600401549050919050565b6007602052816000526040600020818154811061163f57fe5b906000526020600020016000915091509054906101000a900473ffffffffffffffffffffffffffffffffffffffff1681565b60056020528060005260406000206000915090508060000154908060010154908060020154908060040154908060050160009054906101000a900460ff16908060050160019054906101000a900460ff16905086565b600460009054906101000a900473ffffffffffffffffffffffffffffffffffffffff1681565b6000806000806000806000809054906101000a900473ffffffffffffffffffffffffffffffffffffffff1673ffffffffffffffffffffffffffffffffffffffff1663feaf968c6040518163ffffffff1660e01b815260040160a06040518083038186803b15801561175d57600080fd5b505afa158015611771573d6000803e3d6000fd5b505050506040513d60a081101561178757600080fd5b8101908080519060200190929190805190602001909291908051906020019092919080519060200190929190805190602001909291905050509450945094509450945060008211611840576040517f08c379a00000000000000000000000000000000000000000000000000000000081526004018080602001828103825260128152602001807f526f756e64206e6f7420636f6d706c657465000000000000000000000000000081525060200191505060405180910390fd5b839550505050505090565b600460009054906101000a900473ffffffffffffffffffffffffffffffffffffffff1673ffffffffffffffffffffffffffffffffffffffff163373ffffffffffffffffffffffffffffffffffffffff161461190e576040517f08c379a00000000000000000000000000000000000000000000000000000000081526004018080602001828103825260178152602001807f53656e646572206973206e6f7420746865206f776e657200000000000000000081525060200191505060405180910390fd5b61191781612034565b60006006600083815260200190815260200160002060006101000a81548160ff02191690831515021790555061194c816123b9565b600b90805190602001906119619291906125e5565b5050565b600460009054906101000a900473ffffffffffffffffffffffffffffffffffffffff1673ffffffffffffffffffffffffffffffffffffffff163373ffffffffffffffffffffffffffffffffffffffff1614611a28576040517f08c379a00000000000000000000000000000000000000000000000000000000081526004018080602001828103825260178152602001807f53656e646572206973206e6f7420746865206f776e657200000000000000000081525060200191505060405180910390fd5b611a30612632565b600560008381526020019081526020016000206040518060e001604052908160008201548152602001600182015481526020016002820154815260200160038201805480602002602001604051908101604052809291908181526020018280548015611abb57602002820191906000526020600020905b815481526020019060010190808311611aa7575b50505050508152602001600482015481526020016005820160009054906101000a900460ff161515151581526020016005820160019054906101000a900460ff1615151515815250509050806020015143101580611b1d575080604001514311155b15611bbe578260056000848152602001908152602001600020600301600260009054906101000a900460ff1660ff1681548110611b5657fe5b90600052602060002001819055506002600081819054906101000a900460ff168092919060010191906101000a81548160ff021916908360ff16021790555050611ba3816060015161248b565b60056000848152602001908152602001600020600401819055505b505050565b600460009054906101000a900473ffffffffffffffffffffffffffffffffffffffff1673ffffffffffffffffffffffffffffffffffffffff163373ffffffffffffffffffffffffffffffffffffffff1614611c86576040517f08c379a00000000000000000000000000000000000000000000000000000000081526004018080602001828103825260178152602001807f53656e646572206973206e6f7420746865206f776e657200000000000000000081525060200191505060405180910390fd5b600115156006600083815260200190815260200160002060009054906101000a900460ff161515148015611ce15750600115156005600083815260200190815260200160002060050160019054906101000a900460ff161515145b15611d3d576000611cf06116ed565b9050611cfc8183611965565b7f3c53593e8b2b725f8b0d182a8a79fd38a5b1907b2bd2954044a4f91e9f73891f8183604051808381526020018281526020019250505060405180910390a1505b50565b6000600460009054906101000a900473ffffffffffffffffffffffffffffffffffffffff1673ffffffffffffffffffffffffffffffffffffffff163373ffffffffffffffffffffffffffffffffffffffff1614611e05576040517f08c379a00000000000000000000000000000000000000000000000000000000081526004018080602001828103825260178152602001807f53656e646572206973206e6f7420746865206f776e657200000000000000000081525060200191505060405180910390fd5b6060600154604051908082528060200260200182016040528015611e385781602001602082028038833980820191505090505b509050600081600081518110611e4a57fe5b602002602001018181525050600042446040516020018083815260200182815260200192505050604051602081830303815290604052805190602001209050611e91612632565b6040518060e0016040528083815260200186430181526020016001548743010181526020018481526020016000815260200160011515815260200160001515815250905080600560008481526020019081526020016000206000820151816000015560208201518160010155604082015181600201556060820151816003019080519060200190611f23929190612546565b506080820151816004015560a08201518160050160006101000a81548160ff02191690831515021790555060c08201518160050160016101000a81548160ff0219169083151502179055509050507f96f0930b489c56c9fe6473ecfc5cee64b5a0e387190bcbfeef0e3e1ab0652c548160000151826020015183606001518460a001518560c0015160405180868152602001858152602001806020018415151515815260200183151515158152602001828103825285818151815260200191508051906020019060200280838360005b8381101561200e578082015181840152602081019050611ff3565b50505050905001965050505050505060405180910390a180600001519350505050919050565b600460009054906101000a900473ffffffffffffffffffffffffffffffffffffffff1673ffffffffffffffffffffffffffffffffffffffff163373ffffffffffffffffffffffffffffffffffffffff16146120f7576040517f08c379a00000000000000000000000000000000000000000000000000000000081526004018080602001828103825260178152602001807f53656e646572206973206e6f7420746865206f776e657200000000000000000081525060200191505060405180910390fd5b6120ff612632565b600560008381526020019081526020016000206040518060e00160405290816000820154815260200160018201548152602001600282015481526020016003820180548060200260200160405190810160405280929190818152602001828054801561218a57602002820191906000526020600020905b815481526020019060010190808311612176575b50505050508152602001600482015481526020016005820160009054906101000a900460ff161515151581526020016005820160019054906101000a900460ff16151515158152505090508060200151431180156121f05750600115158160a001511515145b156122545760006005600084815260200190815260200160002060050160006101000a81548160ff02191690831515021790555060016005600084815260200190815260200160002060050160016101000a81548160ff0219169083151502179055505b5050565b600460009054906101000a900473ffffffffffffffffffffffffffffffffffffffff1673ffffffffffffffffffffffffffffffffffffffff163373ffffffffffffffffffffffffffffffffffffffff161461231b576040517f08c379a00000000000000000000000000000000000000000000000000000000081526004018080602001828103825260178152602001807f53656e646572206973206e6f7420746865206f776e657200000000000000000081525060200191505060405180910390fd5b600061232682611d40565b905060016006600083815260200190815260200160002060006101000a81548160ff02191690831515021790555080600b600a548154811061236457fe5b90600052602060002001819055506001600a5401600a819055507fc2fe885e49e17be33f40ec8cb90c06188d590e03dcf23b7e69d710cbf61f52e0816040518082815260200191505060405180910390a15050565b60606000600b80549050905060008090506060600183036040519080825280602002602001820160405280156123fe5781602001602082028038833980820191505090505b50905060008090505b838110156124715785600b828154811061241d57fe5b90600052602060002001541461246457600b818154811061243a57fe5b906000526020600020015482848151811061245157fe5b6020026020010181815250506001830192505b8080600101915050612407565b50600b60006124809190612676565b809350505050919050565b60008060008090505b600260009054906101000a900460ff1660ff168160ff1610156124d957838160ff16815181106124c057fe5b6020026020010151820191508080600101915050612494565b50600260009054906101000a900460ff1660ff1681816124f557fe5b05915081915050919050565b604051806101400160405280600073ffffffffffffffffffffffffffffffffffffffff1681526020016000815260200160008152602001612540612697565b81525090565b828054828255906000526020600020908101928215612582579160200282015b82811115612581578251825591602001919060010190612566565b5b50905061258f91906126db565b5090565b8280548282559060005260206000209081019282156125d45760005260206000209182015b828111156125d35782548255916001019190600101906125b8565b5b5090506125e191906126db565b5090565b828054828255906000526020600020908101928215612621579160200282015b82811115612620578251825591602001919060010190612605565b5b50905061262e9190612700565b5090565b6040518060e0016040528060008019168152602001600081526020016000815260200160608152602001600081526020016000151581526020016000151581525090565b50805460008255906000526020600020908101906126949190612700565b50565b6040518060e0016040528060008019168152602001600081526020016000815260200160608152602001600081526020016000151581526020016000151581525090565b6126fd91905b808211156126f95760008160009055506001016126e1565b5090565b90565b61272291905b8082111561271e576000816000905550600101612706565b5090565b9056fea165627a7a72305820f75a50813bffac8a8164df390ab493408c335e3525ef507353493360f1fb3e980029",
  "source": "pragma solidity >=0.4.21 <0.7.0;\n\ninterface AggregatorV3Interface {\n\n  function decimals() external view returns (uint8);\n  function description() external view returns (string memory);\n  function version() external view returns (uint256);\n\n  // getRoundData and latestRoundData should both raise \"No data present\"\n  // if they do not have data to report, instead of returning unset values\n  // which could be misinterpreted as actual reported values.\n  function getRoundData(uint80 _roundId)\n    external\n    view\n    returns (\n      uint80 roundId,\n      int256 answer,\n      uint256 startedAt,\n      uint256 updatedAt,\n      uint80 answeredInRound\n    );\n  function latestRoundData()\n    external\n    view\n    returns (\n      uint80 roundId,\n      int256 answer,\n      uint256 startedAt,\n      uint256 updatedAt,\n      uint80 answeredInRound\n    );\n\n}\n\ncontract PriceConsumerV3 {\n\n    AggregatorV3Interface internal priceFeed;\n\n    /**\n     * Network: Kovan\n     * Aggregator: ETH/USD\n     * Address: 0x9326BFA02ADD2366b30bacB125260Af641031331\n     */\n    constructor() public {\n        priceFeed = AggregatorV3Interface(0x777A68032a88E5A84678A77Af2CD65A7b3c0775a);\n    }\n\n    /**\n     * Returns the latest price\n     */\n    function getLatestPrice() public view returns (int) {\n        (\n            uint80 roundID,\n            int price,\n            uint startedAt,\n            uint timeStamp,\n            uint80 answeredInRound\n        ) = priceFeed.latestRoundData();\n        // If the round is not complete yet, timestamp is 0\n        require(timeStamp > 0, \"Round not complete\");\n        return price;\n    }\n}\n\ncontract Derivative {\n\n    uint256 numberDurationExpiration = 50;\n    uint8 public countOfPrices = 0;\n    uint256 latestPrice;\n    address public owner;\n\n    struct InfoDerivative {\n      bytes32 hashIssue;\n      uint256 startExpirationBlock;\n      uint256 endExpirationBlock;\n      int256[] pricesExpiration;\n      int256 averagePrice;\n      bool isActive;\n      bool isExpirate;\n    }\n\n    event CreateFutures(bytes32 hashIssue, uint256 startExpirationBlock,  int256[] pricesExpiration, bool isActive, bool isExpirate);\n    mapping(bytes32 => InfoDerivative) public poolDerivatives;\n    modifier  onlyOwner  {\n        require(msg.sender == owner, \"Sender is not the owner\");\n        _;\n    }\n\n    constructor() public {\n        owner = msg.sender;\n    }\n\n    function createDerivative(uint256 startExpirationBlockNumber) public onlyOwner returns(bytes32){\n      int256[] memory prices = new int256[](numberDurationExpiration);\n      prices[0] = 0;\n      bytes32 hashDerivative = keccak256(abi.encode(block.timestamp, block.difficulty));\n      InfoDerivative memory newFuture = InfoDerivative( {\n          hashIssue: hashDerivative,\n          startExpirationBlock: block.number + startExpirationBlockNumber,\n          endExpirationBlock: block.number + startExpirationBlockNumber + numberDurationExpiration,\n          pricesExpiration: prices,\n          averagePrice: 0,\n          isActive: true,\n          isExpirate: false\n        });\n        poolDerivatives[hashDerivative] = newFuture;\n        emit CreateFutures(newFuture.hashIssue, newFuture.startExpirationBlock, newFuture.pricesExpiration, newFuture.isActive, newFuture.isExpirate);\n        return newFuture.hashIssue;\n\n    }\n\n    function setExpirationPrice(int256 price, bytes32 hashDerivative) public onlyOwner {\n      InfoDerivative memory currentDerivative = poolDerivatives[hashDerivative];\n          if(block.number >= currentDerivative.startExpirationBlock ||\n              block.number <= currentDerivative.endExpirationBlock) {\n              poolDerivatives[hashDerivative].pricesExpiration[countOfPrices] = price;\n              countOfPrices++;\n              poolDerivatives[hashDerivative].averagePrice = countAvgPrice(currentDerivative.pricesExpiration);\n          }\n    }\n\n   function getExpirationPrice(bytes32 hashDerivative) public view returns(int256) {\n       return poolDerivatives[hashDerivative].averagePrice;\n   }\n\n   function startExpiration(bytes32 hashDerivative) public onlyOwner {\n      // InfoDerivative memory currentDerivative = poolDerivatives[hashDerivative];\n      // if(block.number > currentDerivative.startExpirationBlock && currentDerivative.isActive == true) {\n          poolDerivatives[hashDerivative].isActive = false;\n          poolDerivatives[hashDerivative].isExpirate = true;\n      // }\n    }\n\n     function closeExpiration(bytes32 hashDerivative) public onlyOwner {\n      InfoDerivative memory currentDerivative = poolDerivatives[hashDerivative];\n      if (block.number > currentDerivative.startExpirationBlock && currentDerivative.isActive == true) {\n          poolDerivatives[hashDerivative].isActive = false;\n          poolDerivatives[hashDerivative].isExpirate = true;\n      }\n    }\n\n    function countAvgPrice(int256[] memory prices) private view returns(int256 avgPrice) {\n      int256 total;\n      for (uint8 i = 0; i < countOfPrices; i++) {\n        total += prices[i];\n      }\n      avgPrice = total / countOfPrices;\n      return avgPrice;\n    }\n}\n\ncontract Board is PriceConsumerV3, Derivative {\n\n  struct Investment {\n      address investorAddress;\n      uint256 amount;\n      uint256 predictionPrice;\n      InfoDerivative  derivative;\n  }\n\n  mapping(bytes32 => bool) public activeFutures;\n  mapping(bytes32 => address[]) public derivativeInvestors;\n  mapping(address => InfoDerivative[]) public investorDerivatives;\n  mapping (bytes32 => Investment[]) investmentsToDerivative;\n\n  event AddedExpirationPrice(int256 price, bytes32 hashDerivative);\n  event CreatedDerivative(bytes32 hashDerivative);\n  event BoughtPrice(bytes32 hashDerivative, uint256 amount, uint256 predictionPrice, address investor);\n  uint256 numberActiveFutures = 0;\n  bytes32[] public hashActiveFutures = new bytes32[](50);\n\n  function createNewDerivative(uint256 startExpirationBlockNumber) public onlyOwner {\n    bytes32 hash = createDerivative(startExpirationBlockNumber);\n    activeFutures[hash] = true;\n    hashActiveFutures[numberActiveFutures] = hash;\n    numberActiveFutures = numberActiveFutures + 1;\n    emit CreatedDerivative(hash);\n  }\n\n  function expirateDerivative(bytes32 hashDerivative) public onlyOwner {\n    closeExpiration(hashDerivative);\n    activeFutures[hashDerivative] = false;\n    hashActiveFutures = updateActiveFutures(hashDerivative);\n  }\n\n  function getActiveDerivatives() public view returns(bytes32[] memory, uint256[] memory, uint256[] memory ) {\n      uint256[] memory startBlocksExpiration = new uint256[](hashActiveFutures.length);\n      uint256[] memory finishBlocksExpiration = new uint256[](hashActiveFutures.length);\n      uint8 indexBlocks = 0;\n      for(uint256 j = 0; j < hashActiveFutures.length; j++) {\n          if(activeFutures[hashActiveFutures[j]] == true) {\n              startBlocksExpiration[indexBlocks] = poolDerivatives[hashActiveFutures[j]].startExpirationBlock;\n              finishBlocksExpiration[indexBlocks] = poolDerivatives[hashActiveFutures[j]].endExpirationBlock;\n          }\n      }\n      return (hashActiveFutures, startBlocksExpiration, finishBlocksExpiration);\n  }\n\n  function updateActiveFutures(bytes32 hashDerivative) internal returns( bytes32[] memory){\n      uint256 length = hashActiveFutures.length;\n      uint256 indCurrentDerivative = 0;\n      bytes32[] memory currentActiveDerivative  = new bytes32[](length - 1);\n      for(uint256 ind = 0; ind < length; ind++ ) {\n          if(hashActiveFutures[ind] != hashDerivative) {\n              currentActiveDerivative[indCurrentDerivative] = hashActiveFutures[ind];\n              indCurrentDerivative = indCurrentDerivative + 1;\n          }\n      }\n      delete hashActiveFutures;\n      return currentActiveDerivative;\n  }\n\n  function addExpirationPrice(bytes32 hashDerivative) public onlyOwner {\n      if(activeFutures[hashDerivative] == true && poolDerivatives[hashDerivative].isExpirate == true) {\n          int price = PriceConsumerV3.getLatestPrice();\n           setExpirationPrice(price, hashDerivative);\n           emit AddedExpirationPrice(price, hashDerivative);\n      }\n\n  }\n\n  function buyDerivative(bytes32 hashDerivative, uint256 amount, uint256 predictionPrice) public  {\n      derivativeInvestors[hashDerivative].push(address(msg.sender));\n      Investment memory investment = Investment({investorAddress: address(msg.sender), amount: amount, predictionPrice: predictionPrice, derivative: poolDerivatives[hashDerivative]});\n      investmentsToDerivative[hashDerivative].push(investment);\n      investorDerivatives[address(msg.sender)].push(poolDerivatives[hashDerivative]);\n      emit BoughtPrice(hashDerivative, predictionPrice, amount, address(msg.sender));\n  }\n\n  function getInvestors(bytes32 hashDerivative) public view returns(address[] memory  , uint256[] memory  , uint256[] memory  ) {\n      uint256 length = investmentsToDerivative[hashDerivative].length;\n      address[] memory  investors = new address[](length);\n      uint256[] memory  investorsPrices = new uint256[](length);\n      uint256[] memory  investorsAmounts = new uint256[](length);\n      Investment[] memory investments = investmentsToDerivative[hashDerivative];\n      for(uint256 k = 0; k < length; k++) {\n         investors[k] = investments[k].investorAddress;\n         investorsPrices[k] = investments[k].predictionPrice;\n         investorsAmounts[k] = investments[k].amount;\n      }\n      return (investors,  investorsPrices, investorsAmounts);\n  }\n\n  function startPaymentAfterExpiration(bytes32 hashDerivative) public view onlyOwner {\n    if(activeFutures[hashDerivative] == false) {\n        int256 expirationPrice = poolDerivatives[hashDerivative].averagePrice;\n        uint256 totalInvestors = investmentsToDerivative[hashDerivative].length;\n        uint256 countOfWinner = totalInvestors / 10;\n        Investment[] memory investments = investmentsToDerivative[hashDerivative];\n        // compare prices\n    }\n  }\n\n  function rangePrices() internal {\n\n  }\n\n}\n",
  "sourcePath": "/media/dev/a1f3111b-cf3b-4b8d-8080-52d4b51c231e/dev//hackathons/chainlink/icon-derivatives/contracts/Board.sol",
  "compiler": {
    "name": "solc",
    "version": "0.5.8+commit.23d335f2.Emscripten.clang"
  },
  "schemaVersion": "3.0.16",
  "updatedAt": "2020-09-27T16:23:15.139Z",
  "devdoc": {
    "methods": {}
  },
  "userdoc": {
    "methods": {
      "getLatestPrice()": {
        "notice": "Returns the latest price"
      }
    }
  }
}