{
  "contractName": "Oracle",
  "abi": [
    {
      "constant": true,
      "inputs": [],
      "name": "owner",
      "outputs": [
        {
          "name": "",
          "type": "address"
        }
      ],
      "payable": false,
      "stateMutability": "view",
      "type": "function"
    },
    {
      "constant": true,
      "inputs": [],
      "name": "latestPrice",
      "outputs": [
        {
          "name": "",
          "type": "uint256"
        }
      ],
      "payable": false,
      "stateMutability": "view",
      "type": "function"
    },
    {
      "inputs": [],
      "payable": false,
      "stateMutability": "nonpayable",
      "type": "constructor"
    },
    {
      "constant": false,
      "inputs": [
        {
          "name": "price",
          "type": "uint256"
        },
        {
          "name": "blockNumber",
          "type": "uint256"
        }
      ],
      "name": "setPrize",
      "outputs": [],
      "payable": false,
      "stateMutability": "nonpayable",
      "type": "function"
    }
  ],
  "bytecode": "0x608060405234801561001057600080fd5b5033600260006101000a81548173ffffffffffffffffffffffffffffffffffffffff021916908373ffffffffffffffffffffffffffffffffffffffff160217905550610213806100616000396000f3fe608060405234801561001057600080fd5b50600436106100415760003560e01c80638da5cb5b1461004657806396e5b68c14610090578063a3e6ba94146100c8575b600080fd5b61004e6100e6565b604051808273ffffffffffffffffffffffffffffffffffffffff1673ffffffffffffffffffffffffffffffffffffffff16815260200191505060405180910390f35b6100c6600480360360408110156100a657600080fd5b81019080803590602001909291908035906020019092919050505061010c565b005b6100d06101e1565b6040518082815260200191505060405180910390f35b600260009054906101000a900473ffffffffffffffffffffffffffffffffffffffff1681565b600260009054906101000a900473ffffffffffffffffffffffffffffffffffffffff1673ffffffffffffffffffffffffffffffffffffffff163373ffffffffffffffffffffffffffffffffffffffff16146101cf576040517f08c379a00000000000000000000000000000000000000000000000000000000081526004018080602001828103825260178152602001807f53656e646572206973206e6f7420746865206f776e657200000000000000000081525060200191505060405180910390fd5b81600181905550806000819055505050565b6001548156fea165627a7a723058208fbd8832b458f79e798f01594e7d6fcfe0203b69211abcd073e4cc605a91d3d60029",
  "source": "pragma solidity >=0.4.21 <0.7.0;\n\n\ncontract Oracle {\n\n    uint256 latestBlockNumber;\n    uint256 public latestPrice ;\n    address public owner;\n\n    modifier onlyOwner {\n        require(msg.sender == owner, \"Sender is not the owner\");\n        _;\n    }\n\n    constructor() public {\n        owner = msg.sender;\n    }\n\n    function setPrize(uint256 price, uint256 blockNumber) public onlyOwner {\n      latestPrice = price;\n      latestBlockNumber = blockNumber;\n    }\n}\n\ncontract Derivative {\n\n    uint256 numberDurationExpiration = 10;\n    uint8 public countOfPrices = 0;\n    uint256 latestPrice;\n    address public owner;\n\n    struct InfoDerivative {\n      bytes32 hashIssue;\n      uint256 startExpirationBlock;\n      uint256 endExpirationBlock;\n      uint256[] pricesExpiration;\n      uint256 averagePrice;\n      bool isActive;\n      bool isExpirate;\n    }\n\n    event CreateFutures(bytes32 hashIssue, uint256 startExpirationBlock,  uint256[] pricesExpiration, bool isActive, bool isExpirate);\n    mapping(bytes32 => InfoDerivative) public poolDerivatives;\n    modifier  onlyOwner  {\n        require(msg.sender == owner, \"Sender is not the owner\");\n        _;\n    }\n\n    constructor() public {\n        owner = msg.sender;\n    }\n\n    function createDerivative(uint256 startExpirationBlockNumber) public onlyOwner returns(bytes32){\n      uint256[] memory prices = new uint256[](numberDurationExpiration);\n      prices[0] = 0;\n      bytes32 hashDerivative = keccak256(abi.encode(block.timestamp, block.difficulty));\n      InfoDerivative memory newFuture = InfoDerivative( {\n          hashIssue: hashDerivative,\n          startExpirationBlock: startExpirationBlockNumber,\n          endExpirationBlock: startExpirationBlockNumber + numberDurationExpiration,\n          pricesExpiration: prices,\n          averagePrice: 0,\n          isActive: true,\n          isExpirate: false\n        });\n        poolDerivatives[hashDerivative] = newFuture;\n        emit CreateFutures(newFuture.hashIssue, newFuture.startExpirationBlock, newFuture.pricesExpiration, newFuture.isActive, newFuture.isExpirate);\n        return hashDerivative;\n\n    }\n\n    function setExpirationPrice(uint256 price, bytes32 hashDerivative) public onlyOwner {\n      InfoDerivative memory currentDerivative = poolDerivatives[hashDerivative];\n      if (numberDurationExpiration > countOfPrices) {\n           // if(block.number >= currentDerivative.startExpirationBlock ||\n         // block.number <= currentDerivative.endExpirationBlock) {\n          poolDerivatives[hashDerivative].pricesExpiration[countOfPrices] = price;\n          countOfPrices++;\n          poolDerivatives[hashDerivative].averagePrice = countAvgPrice(currentDerivative.pricesExpiration);\n\n      // }\n      }\n\n    }\n\n   function getExpirationPrice(bytes32 hashDerivative) public view returns(uint256) {\n       return poolDerivatives[hashDerivative].averagePrice;\n   }\n\n   function closeExpiration(bytes32 hashDerivative) public onlyOwner {\n      // InfoDerivative memory currentDerivative = poolDerivatives[hashDerivative];\n      // if(block.number > currentDerivative.startExpirationBlock && currentDerivative.isActive == true) {\n          poolDerivatives[hashDerivative].isActive = false;\n          poolDerivatives[hashDerivative].isExpirate = true;\n      // }\n    }\n\n    function countAvgPrice(uint256[] memory prices) private view returns(uint256 avgPrice) {\n      uint256 total;\n      for (uint8 i = 0; i < countOfPrices; i++) {\n        total += prices[i];\n      }\n      avgPrice = total / countOfPrices;\n      return avgPrice;\n    }\n}\n\ncontract Board is Oracle, Derivative {\n\n  mapping (bytes32 => bool) activeFutures;\n  mapping(bytes32 => address[]) derivativeInvestors;\n  mapping(address => InfoDerivative[]) pullInvestorDerivative;\n\n  event AddedExpirationPrice(uint256 price, bytes32 hashDerivative);\n  event BoughtPrice(bytes32 hashDerivative, uint256 amount, uint256 predictionPrice, address investor);\n  function createNewDerivative(uint256 startExpirationBlockNumber) public onlyOwner {\n    bytes32 hash = createDerivative(startExpirationBlockNumber);\n    activeFutures[hash] = true;\n  }\n\n  function expirateDerivative(bytes32 hashDerivative) public onlyOwner {\n    closeExpiration(hashDerivative);\n    activeFutures[hashDerivative] = false;\n  }\n\n  function addExpirationPrice(uint256 price, bytes32 hashDerivative) public onlyOwner {\n      if(activeFutures[hashDerivative]) {\n           setExpirationPrice(price, hashDerivative);\n           emit AddedExpirationPrice(price, hashDerivative);\n      }\n\n  }\n\n  function buyDerivative(bytes32 hashDerivative, uint256 amount, uint256 predictionPrice) public  {\n      derivativeInvestors[hashDerivative].push(address(msg.sender));\n      emit BoughtPrice(hashDerivative, predictionPrice, amount, address(msg.sender));\n  }\n\n  function startPaymentAfterExpiration(bytes32 hashDerivative) public onlyOwner {\n    if(activeFutures[hashDerivative] == false) {\n\n     }\n  }\n\n}\n",
  "sourcePath": "/media/dev/a1f3111b-cf3b-4b8d-8080-52d4b51c231e/dev/Документы/hackathons/chainlink/icon-derivatives/contracts/Board.sol",
  "compiler": {
    "name": "solc",
    "version": "0.5.8+commit.23d335f2.Emscripten.clang"
  },
  "schemaVersion": "3.0.16",
  "updatedAt": "2020-09-25T13:25:31.649Z",
  "devdoc": {
    "methods": {}
  },
  "userdoc": {
    "methods": {}
  }
}